:100DA90020205448414C4547524F55500020544546
:100DB9005354204B49542038395335320054455344
:100DC90054204B455920444F4E004B45593D25323F
:100DD9007500574149542031307300574149542017
:100DE9003373002054454D503A2025322E32665E29
:100DF90043004D494E48484147524F55500025320E
:100E0900753A2532753A253275002532753A2532FB
:070E1900753A323025750027
:1009F900120F171211EEE4FDFF1210A27BFF7A0D00
:100A090079A91210307D01E4FF1210A27BFF7A0D43
:100A190079B6121030120CA38F3CE53C6430701C7F
:100A2900120F171211EEE4FDFF1210A2120CA38F80
:100A39003CE53C60F77E001211E680F0E53C64314C
:020A4900705AE1
:100A4B00120F177567FF75680D7569C67B007A0005
:100A5B00793D1205E6E4FDFF1210A27B007A0079C6
:100A6B003D8032120E818E628F63E563456260F3C7
:100A7B007567FF75680D7569D385626A85636B7BD6
:100A8B00007A0079271205E67D01E4FF1210A27BA4
:0A0A9B00007A00792712103080C99C
:100AA500E53CB43225E4F53BAF3B7480A8070880EC
:100AB50002C313D8FCF4F5907F2C7E0112000305C8
:100AC5003BE53BC3940840E080DBE53C643370665E
:100AD500C293C29030932EB293B290120F177567DE
:100AE500FF75680D7569DB7B007A00793D1205E6B7
:100AF500E4FDFF1210A27B007A00793D1210307FD1
:100B0500287E23802CB293B290120F177567FF755C
:100B1500680D7569E47B007A00793D1205E6E4FD10
:100B2500FF1210A27B007A00793D1210307F8C7E77
:100B35000A120003809EE53C64347043120F1712BD
:100B450011EE120D318F258E248D238C227567FFB2
:100B550075680D7569EC8F6D8E6C8D6B8C6A7B007D
:100B65007A00793D1205E6E4FDFF1210A27B007ABA
:100B750000793D1210307F2C7E0112000380C3E501
:100B85003CB43511E4F580F53B75A0FD053BE53B2F
:100B9500B402F680EFE53C6436702D12115A120F3F
:100BA500171211EED2AF7BFF7A0D79FB12119A1253
:100BB50011D38F26E52660F77D017F031210A2AFC2
:100BC500267E001211E680E7E53C64376003020AE1
:100BD5001E120F171211EE120FDEE4FBFD7F0E122F
:100BE500113F75670D7B057D077F0612110575673A
:100BF5000075680075695C756A00756B00756C5DDC
:100C05007B007A00795B120F557567007568007572
:100C1500695F756A00756B00756C60756D00756E42
:100C250000756F617B007A00795E120ED57567FFDE
:100C350075680E756907756A00855B6B756C00854F
:100C45005C6D756E00855D6F7B007A00793D1205E0
:100C5500E6E4FDFF1210A27B007A00793D12103008
:100C65007567FF75680E756913756A00855F6B7525
:100C75006C0085606D756E0085616F7B007A00790B
:100C85003D1205E67D01E4FF1210A27B007A007992
:0E0C95003D1210307FFA7E00120003020BF3B6
:10000300E4FDFCC3ED9FEC9E5015E4FBFA0BBB0033
:0F001300010AEB647D4A70F50DBD00010C80E41D
:0100220022BB
:1010E500E4FDFCC3ED9FEC9E5015E4FBFA0BBB0041
:0F10F500010AEB64024A70F50DBD00010C80E4A6
:0111040022C8
:100F8800D2927F087E001210E5C2927F5A7E00122C
:100F980010E5D2927F087E001210E5A29292097F96
:0B0FA800647E001210E5D292A2092224
:100FB300E4F569F56A756908C292E56AC313F56ACF
:100FC300D292309203436A807F047E001210E515AB
:0A0FD30069E569D3940050E0AF6AAD
:010FDD0022F1
:021008008F69EE
:10100A00E4F56A756A08C292E5691392927F057ED1
:10101A00001210E5D292E569C313F569156AE56A0B
:05102A00D3940050E129
:01102F00229E
:100D3100120F887FCC1210087F44121008120F88FE
:100D41007FCC1210087FBE121008120FB38F68E516
:100D510068540FFCE41201C8E4FBFA79807841126F
:100D610001218F678E668D658C64120FB3EF540F6E
:100D7100C454F0FFE56854F0FEC4540F4FF568AB5E
:100D810067AA66A965A864C000C001C002C003FCCF
:100D9100E41201C8D003D002D001D00012002D8F7F
:070DA100678E668D658C640E
:010DA8002228
:0311720012112334
:10117500D2A47F037E001210E5C2A47F057E000283
:0211850010E573
:10112300EF139284EFC313139285EF1313543F13FA
:0C1133009286EF131313541F13928722AF
:101187008F67E567C4540FFF121172AF67121123FF
:03119700021175CD
:100F1700E4FF1211237FC87E00120003C2A2C2A3FE
:100F2700C2A47F031211721211751211757F02127A
:100F370011231211757F2C1211877F801211877F61
:0E0F47000C1211877F061211877F010211879D
:1010A200ED7007EF2480F5648005EF24C0F5647FBE
:1010B200037E00120003AF641211877F017E0002DB
:0210C200000329
:0511EE007F01021187E2
:0811E600D2A2121187C2A2225D
:101030008B648A658966AB64AA65A9661204EEFFB3
:1010400060143395E0FE1211E674012566F566E43E
:071050003565F56580E02223
:1011AD003031323334353637383941424344454690
:100CA30075900F7F027E001210E5E590540F640FDC
:100CB30060797F647E001210E5E590540F640F6045
:100CC3006AE4F564E5642404FF7401A8070880025C
:100CD300C333D8FCF4F5907F017E00120003E4FDDA
:100CE30074017E00A805088005C333CE33CED8F93E
:100CF300FFAC90ECFBEF5B7025E590540FFFBF0F4B
:100D0300F8ED25E025E024ADF582E43411F583E523
:100D1300822564F582E43583F583E493FF220DBDD8
:0D0D230004BE0564E564C3940440997F009C
:010D300022A0
:10115A00D2CDD2CC75CADC75CBFFD2CAD2AC75B8A7
:08116A001075985053877F2295
:0A11C9007508018F99E50870FC22FB
:0911D300E4FF309804C298AF99C2
:0111DC0022F0
:030023000211DDEA
:0911DD00309905C2997508003231
:10119A001204EEFF600C1211C9740129F9E43AFA3B
:0311AA0080EE22B2
:0210C4008F7328
:1010C600D2B37F0A7E001210E5E4FFE5731392B3F4
:0E10D600E573C313F573D297C2970FBF08EDF1
:0110E40022E9
:10107E008D68E56875F00A84C454F0FEE56875F075
:10108E000A84EE45F0F568D2B21210C4AF681210A1
:04109E00C4C2B222F4
:100E2000E4F570F571F572D2B21210C4D2B3A2B368
:100E3000E433F5727F017E001210E5E4F570A2B391
:100E4000E433F572AF70A807088002C333D8FC42C0
:100E500071D2977F027E001210E5C2977F027E005A
:100E60001210E50570E570D3940740D2C2B2E57167
:100E7000C4540F75F00AA4FFE571540F2FF571FFEC
:010E8000224F
:100FDE00C2B27F027E001210E5C297E4FD7F8E1230
:100FEE00107E7DA47F9012107E7F81120E20EF3036
:090FFE00E707E4FD7F8012107E7C
:0110070022C6
:10113F008F648D65AF03AD077F8012107EAD657F25
:0B114F008212107EAD647F8402107ECF
:101105008F648B667F8612107EAD667F8812107E97
:0E111500AD647F8A12107EAD677F8C02107E63
:100F55008B648A6589667F81120E20AB6AAA6BA9AC
:100F65006CEF1205347F83120E20AB67AA68A9695E
:100F7500EF1205347F85120E20AB64AA65A966EFD2
:030F85000205342E
:100ED5008B648A6589667F87120E20AB67AA68A92D
:100EE50069EF1205347F89120E20AB6AAA6BA96CD3
:100EF500EF1205347F8B120E20AB64AA65A966EF4D
:100F05001205347F8D120E20AB6DAA6EA96FEF020C
:020F15000534A1
:100E8100D2B5D2B4D2B3D2B220B20F7F0A7E001251
:100E9100000320B2057E007F012220B30F7F0A7E6E
:100EA1000012000320B3057E007F022220B40F7FD1
:100EB1000A7E0012000320B4057E007F032220B5C4
:100EC1000F7F0A7E0012000320B5057E007F0422F9
:040ED100E4FEFF221A
:10002600020231E86480F8E933E83360110460F0D5
:10003600ED33EC337009E8FCE9FDEAFEEBFF220440
:1000460060DED3EB9FEA9EE99DE8C2E78CF0C2F73B
:1000560095F0400CE8CCF8E9CDF9EACEFAEBCFFB07
:100066001201FC85D0F05804700320D5B3E8047063
:10007600075002B2D502023B92D5EC0460F7E4CCFD
:10008600C0E0C398F8603B94186008400DD0E0FBD0
:10009600020213E4FBFAC9FC8028E830E406E4C94E
:1000A600FBE4CAFCE830E305E4C9CACBFCE8540724
:1000B6006010F8C3E913F9EA13FAEB13FBEC13FC2F
:1000C600D8F130F52FC3E49CFCEF9BFFEE9AFEEDD2
:1000D60099FDD0E0FBEF4E4D4C701222DB0302027D
:1000E60038EC2CFCEF33FFEE33FEED33FDED30E75D
:1000F600EB020213EF2BFFEE3AFEED39FDD0E0FBEB
:1001060050130BBB000302023BED13FDEE13FEEF93
:0801160013FFEC13FC020213BD
:10011E0002023BEC5D046005E859047003020231F3
:10012E001201FC580460F6EC4860F2EC7004FDFE1F
:10013E00FF22C860DB2481C85009C39860025006B4
:10014E000202389850CAF582E9294B4A7005AB82F3
:10015E0002022775F0007C1A7880C3EF9BEE9AEDB1
:10016E0099400DC3EF9BFFEE9AFEED99FDE842F02C
:10017E00DC23ACF0D0E0FFD0E0FED0E0FDAB82207F
:10018E00E7101BEB60BAEC2CFCEF33FFEE33FEED09
:10019E0033FD020213E803F830E705C0F075F000F6
:1001AE00EF2FFFEE33FEED33FD40B830E7C280AAED
:1001BE0075F020800E75F010800575F0087D007EBC
:1001CE00007F003392D530D503120546EC33401034
:1001DE00EF33FFEE33FEED33FDEC33FCD5F0ED22C5
:0E01EE00E5F0247EA2D513CC92E7CDCEFF2201
:10058A00E57B2467F8E6057B227864300702786702
:10059A00E475F0011205540204EE2000EB7F2ED21E
:1005AA00008018EF540F2490D43440D4FF30040B49
:1005BA00EF24BFB41A0050032461FFE57C600215E2
:1005CA007C057FE57F7002057E30070D7864E4754F
:1005DA00F001120554EF0205340210577403D207D2
:1005EA008003E4C207F57B8B648A658966E4F57C3F
:1005FA00F57EF57FE57C60077F201205C580F575DD
:10060A007DFFC201C200C202C203C205C206C208FD
:10061A00120593FF700D3007057F001205D6AF7FD4
:10062A00AE7E22B4255FC2D5C204120593FF24D040
:10063A00B40A00501A75F00A787C30D50508B6FF5E
:10064A000106C6A426F620D5047002D20380D92456
:10065A00CFB41A00EF5004C2E5D2040208C3D20193
:10066A0080C6D20080C0D20280BCD2D580BAD20560
:10067A0080B47F201205C52002077401B57C0040B2
:10068A00F112058AFF1205C50205FED208D20680BC
:10069A009512058AFB12058AFA12058AF94A4B70E5
:1006AA000679BA7A097BFF20022EE57C602A7E0051
:1006BA008E8275830012050760060EEE657D70F066
:1006CA00C2D5EBC0E0EAC0E0E9C0E0EE120923D0EF
:1006DA00E0F9D0E0FAD0E0FB1204EEFF60AAEBC02A
:1006EA00E0EAC0E0E9C0E01205C5D0E02401F9D093
:1006FA00E03400FAD0E0FBE57D0460DCD57DD980EA
:10070A0087D20280A212090660F7E57D7001041201
:10071A000246A97D600DE57D600914F57D1209ADDB
:10072A00EF60F3EA30E702F404C3995077EAF4255C
:10073A007D0430E701E404F57D800D12090660C1ED
:10074A00EA057D257D120246EA787AF630E701E469
:10075A00257D04D57D0420050114120923E4C0E097
:10076A001209AD787AE6601320E70714F61205AD90
:10077A00802204F6D0E014C0E07F001205ADE57DCA
:10078A0060071205A4157D800B3005031205A4D05D
:10079A00E00205FED0E00480C512090660A0E57DEE
:1007AA0004120246787AEAF6E57D20050260010421
:0507BA002404120923D4
:1007BF0074FF04C0E01209AD1205ADE57D200502FE
:1007CF0060031205A4D0E0B57DE87F451205B77828
:1007DF007AE67F2B30E7047F2DF404C0E01205C5C5
:1007EF00D0E075F00A84C0F01205AED0E01205AE6D
:1007FF000205FE791080027908C206C2088008D26D
:10080F00D5790A8004790AC2D5E57D047002F57D99
:10081F00E4FAFDFEFF12058AFC7B08200113120586
:10082F008AFD7B1030000A12058AFE12058AFF7BB3
:10083F0020EC3382D592D55013C3E43000069FFFCE
:10084F00E49EFEE42001039DFDE49CFCE4CBF8C292
:10085F0001EC700CCFCECDCCE824F8F870F38017F4
:10086F00C3EF33FFEE33FEED33FDEC33FCEB33FB25
:10087F00994002FB0FD8E9EB300105F8D0E0C448EE
:10088F00B201C0E00AEC4D4E4F78207B0070C2EAF7
:10089F00B57D0040BCC0E0120925D0F0D0E02001AA
:1008AF0004C4C0E0C4B201C0F01205AED0F0D5F060
:1008BF00EB0205FE120564069B53080258066C4CAA
:1008CF0006684208064F080E44080E490681430881
:1008DF00145507454607A345070F4709DA50067019
:1008EF002D06742E06972B06782306952009C32A0A
:1008FF000630480000068FE57DB4FF03757D0612B4
:10090F00058AFC12058AFD12058AFE12058AFF78F8
:10091F0073020275790AA2D5200314300509B910A4
:10092F00020404B9080104A2D520060250010420D4
:10093F0002689202B57C005034C0E07F203003196A
:10094F007F30A20272067205500F12097CC202C2DA
:10095F0006C205C2087F30800F300503E9C0E012E0
:10096F0005C5300503D0E0F9D0E0B57CCC300517D4
:10097F007F30B9100C1205C57F583004077F78807F
:10098F0003B908031205C53002057F2D0205C57F87
:10099F00202008F87F2B2006F322920280CF7F00C1
:1009AF00B4070050052473F8E6FF22286E756C6CAF
:1009BF002900D20112058A3001F8C201787C30D5A6
:1009CF000108F60206302D5043495812058A2403B8
:1009DF00B405004001E49009D5931205B6743A129C
:0A09EF0005B6D203757C040208026D
:1001FC00E9D2E7C933E833F892D5EDD2E7CD33EC49
:07020C0033FC5002B2D522C1
:10021300EC30E7100FBF000C0EBE00080DBD00044C
:100223000BEB6014A2D5EB13FCED92E7FD2274FFF8
:10023300FCFDFEFF22E480F8A2D574FF13FC7D8051
:03024300E480EF65
:10024600F920E72824F950037907E4F42402FB187F
:10025600DBFDE624FB5014E9600DE4F618E604F62F
:0F026600B40A08E4F6D9F57401F60A22C2D522CB
:10027500ED33EC3392D5FA602AB4FF33EDC2E77B58
:10028500FF60067A02799AE4227A0279A320D504DE
:100295007A02799E224E614E002B494E46002D4929
:1002A5004E4600E47A08F608DAFC7B00740722E87B
:1002B500C0E0ECC0E0EDC0E0EEC0E0EFC0E0EA7504
:1002C500F010A4CAABF075F04DA42BFBE435F0FC9F
:1002D500EA2410FAEB34C5FBEC34D9FCEDC2E7FF98
:1002E50075F056A4F42411C5F0F434C58FF0A42A92
:1002F500E5F03BE43CF620E7141204AED0E0FFD075
:10030500E0FED0E0FDD0E0FC1201218014F40412DF
:1003150004AED0E0FFD0E0FED0E0FDD0E0FC12035B
:1003250078D0E0F8E6FAEDD2E7CD33EC332482FB62
:10033500E4C3CF33CFCE33CECD33CD33DBF37B0721
:1003450075F00A846004F6081B0AE5F0F6088FF0DC
:10035500740AA4FFACF08EF0740AA42CFEACF05025
:10036500010C8DF0740AA42CFDE435F0F608DBDEF3
:03037500740722E8
:10037800EC4D6011E8497017ED33EC3304600DE47F
:10038800FCFFFEFD22E933E8330470F80202311263
:1003980001FC58046009E4CC248150062850090265
:1003A800023B284003020238C0E0EB4A7044B9809F
:1003B80006D0E0FB020227EF4E701CBD8008EBFF61
:1003C800EAFEE9FD80EBE98DF0A4FEE5F0020461A8
:1003D800E9CDF9EAFEEBFFEF89F0A4FCE5F0CE8960
:1003E800F0A42EFFE435F0CD89F0A42DFEE435F01D
:1003F8008067EF4E7005BD80D780C3EF8BF0A4AC4B
:10040800F0EE8BF0A42CFCE435F0F8EF8AF0A42C85
:10041800E5F038FCE433CB8DF0A42CFCE5F03BF898
:10042800EE8AF0A42CFCE5F038F8E433CF89F0A488
:100438002CFCE5F038CF3400CE89F0A42FFFE5F08E
:100448003EFEE433C98DF0A42EFEE5F039CD8AF0E6
:10045800A42FFFE5F03EFEE43DFD33D0E0FB50075E
:100468000BBB000F02023BEC2CFCEF33FFEE33FE1C
:06047800ED33FD0202134A
:10047E003F8000004120000042C80000447A000086
:10048E00461C400047C35000497424004B18968008
:10049E004CBEBC205A0E1BCA6753C21C749DC5AEFF
:1004AE00FB60065407601C23231204DCEB543860F7
:1004BE00091204C81204D7120378ECF8EDF9EEFA1B
:1004CE00EFCB22EB1204D780F1543803241C900496
:1004DE007EFE93FC0EEE93FD0EEE930ECE93FF2258
:030000000211BD2D
:0C11BD00787FE4F6D8FD75817F0209F907
:1004EE00BB010689828A83E0225002E722BBFE020C
:0904FE00E32289828A83E493223F
:10050700BB010CE58229F582E5833AF583E02250A9
:1005170006E92582F8E622BBFE06E92582F8E222F3
:0D052700E58229F582E5833AF583E493220D
:10053400BB010689828A83F0225002F722BBFE01A6
:02054400F322A0
:0E054600C3E49FFFE49EFEE49DFDE49CFC22C6
:10055400FAE6FB0808E6F925F0F618E6CA3AF622A8
:10056400D083D082F8E4937012740193700DA3A326
:1005740093F8740193F5828883E47374029368603A
:06058400EFA3A3A380DF3A
:10105700EFB40A07740D121062740A309811A89938
:10106700B8130CC2983098FDA899C298B811F630F9
:0710770099FDC299F59922D1
:00000001FF
